{
  "contractName": "VoteTracker",
  "abi": [
    {
      "anonymous": false,
      "inputs": [
        {
          "indexed": false,
          "internalType": "string",
          "name": "add",
          "type": "string"
        },
        {
          "indexed": false,
          "internalType": "string",
          "name": "adhaarNumber",
          "type": "string"
        },
        {
          "indexed": false,
          "internalType": "string",
          "name": "email",
          "type": "string"
        }
      ],
      "name": "IdentityCreate",
      "type": "event"
    },
    {
      "anonymous": false,
      "inputs": [
        {
          "indexed": false,
          "internalType": "string",
          "name": "name",
          "type": "string"
        },
        {
          "indexed": false,
          "internalType": "uint256",
          "name": "voteCount",
          "type": "uint256"
        }
      ],
      "name": "PartyCreate",
      "type": "event"
    },
    {
      "anonymous": false,
      "inputs": [
        {
          "indexed": false,
          "internalType": "uint256",
          "name": "voteCount",
          "type": "uint256"
        },
        {
          "indexed": false,
          "internalType": "uint256",
          "name": "time",
          "type": "uint256"
        },
        {
          "indexed": false,
          "internalType": "string",
          "name": "partyName",
          "type": "string"
        },
        {
          "indexed": false,
          "internalType": "string",
          "name": "adhaar",
          "type": "string"
        },
        {
          "indexed": false,
          "internalType": "string",
          "name": "constituency",
          "type": "string"
        }
      ],
      "name": "VoteGenerate",
      "type": "event"
    },
    {
      "constant": true,
      "inputs": [
        {
          "internalType": "uint256",
          "name": "",
          "type": "uint256"
        }
      ],
      "name": "IdentityStore",
      "outputs": [
        {
          "internalType": "string",
          "name": "add",
          "type": "string"
        },
        {
          "internalType": "string",
          "name": "adhaarNumber",
          "type": "string"
        },
        {
          "internalType": "string",
          "name": "email",
          "type": "string"
        }
      ],
      "payable": false,
      "stateMutability": "view",
      "type": "function"
    },
    {
      "constant": true,
      "inputs": [
        {
          "internalType": "uint256",
          "name": "",
          "type": "uint256"
        }
      ],
      "name": "PartyStore",
      "outputs": [
        {
          "internalType": "string",
          "name": "name",
          "type": "string"
        },
        {
          "internalType": "uint256",
          "name": "voteCount",
          "type": "uint256"
        }
      ],
      "payable": false,
      "stateMutability": "view",
      "type": "function"
    },
    {
      "constant": true,
      "inputs": [
        {
          "internalType": "uint256",
          "name": "",
          "type": "uint256"
        }
      ],
      "name": "VoteStore",
      "outputs": [
        {
          "internalType": "uint256",
          "name": "id",
          "type": "uint256"
        },
        {
          "internalType": "uint256",
          "name": "time",
          "type": "uint256"
        },
        {
          "internalType": "string",
          "name": "PartyName",
          "type": "string"
        },
        {
          "internalType": "string",
          "name": "adhaar",
          "type": "string"
        },
        {
          "internalType": "string",
          "name": "constituency",
          "type": "string"
        }
      ],
      "payable": false,
      "stateMutability": "view",
      "type": "function"
    },
    {
      "constant": true,
      "inputs": [],
      "name": "identityCount",
      "outputs": [
        {
          "internalType": "uint256",
          "name": "",
          "type": "uint256"
        }
      ],
      "payable": false,
      "stateMutability": "view",
      "type": "function"
    },
    {
      "constant": true,
      "inputs": [],
      "name": "partyCount",
      "outputs": [
        {
          "internalType": "uint256",
          "name": "",
          "type": "uint256"
        }
      ],
      "payable": false,
      "stateMutability": "view",
      "type": "function"
    },
    {
      "constant": true,
      "inputs": [],
      "name": "secret",
      "outputs": [
        {
          "internalType": "string",
          "name": "",
          "type": "string"
        }
      ],
      "payable": false,
      "stateMutability": "view",
      "type": "function"
    },
    {
      "constant": true,
      "inputs": [],
      "name": "voterCount",
      "outputs": [
        {
          "internalType": "uint256",
          "name": "",
          "type": "uint256"
        }
      ],
      "payable": false,
      "stateMutability": "view",
      "type": "function"
    },
    {
      "constant": false,
      "inputs": [
        {
          "internalType": "string",
          "name": "_add",
          "type": "string"
        },
        {
          "internalType": "string",
          "name": "_adhaarNumber",
          "type": "string"
        },
        {
          "internalType": "string",
          "name": "_email",
          "type": "string"
        }
      ],
      "name": "registerUser",
      "outputs": [
        {
          "internalType": "uint256",
          "name": "",
          "type": "uint256"
        }
      ],
      "payable": false,
      "stateMutability": "nonpayable",
      "type": "function"
    },
    {
      "constant": false,
      "inputs": [
        {
          "internalType": "string",
          "name": "_adder",
          "type": "string"
        },
        {
          "internalType": "string",
          "name": "_partyName",
          "type": "string"
        },
        {
          "internalType": "string",
          "name": "_adhaar",
          "type": "string"
        },
        {
          "internalType": "string",
          "name": "_constituency",
          "type": "string"
        }
      ],
      "name": "generateVote",
      "outputs": [
        {
          "internalType": "uint256",
          "name": "",
          "type": "uint256"
        }
      ],
      "payable": false,
      "stateMutability": "nonpayable",
      "type": "function"
    },
    {
      "constant": false,
      "inputs": [
        {
          "internalType": "string",
          "name": "_name",
          "type": "string"
        }
      ],
      "name": "createParty",
      "outputs": [
        {
          "internalType": "uint256",
          "name": "",
          "type": "uint256"
        }
      ],
      "payable": false,
      "stateMutability": "nonpayable",
      "type": "function"
    },
    {
      "constant": false,
      "inputs": [],
      "name": "getAdminKey",
      "outputs": [
        {
          "internalType": "string",
          "name": "",
          "type": "string"
        }
      ],
      "payable": false,
      "stateMutability": "nonpayable",
      "type": "function"
    },
    {
      "constant": false,
      "inputs": [],
      "name": "getPartyCount",
      "outputs": [
        {
          "internalType": "uint256",
          "name": "",
          "type": "uint256"
        }
      ],
      "payable": false,
      "stateMutability": "nonpayable",
      "type": "function"
    },
    {
      "constant": false,
      "inputs": [
        {
          "internalType": "uint256",
          "name": "_id",
          "type": "uint256"
        }
      ],
      "name": "getNames",
      "outputs": [
        {
          "internalType": "uint256",
          "name": "",
          "type": "uint256"
        },
        {
          "internalType": "string",
          "name": "",
          "type": "string"
        }
      ],
      "payable": false,
      "stateMutability": "nonpayable",
      "type": "function"
    }
  ],
  "bytecode": "0x60806040526040518060400160405280600681526020017f3132333435360000000000000000000000000000000000000000000000000000815250600090805190602001906200005192919062000075565b506000600255600060045560006006553480156200006e57600080fd5b5062000124565b828054600181600116156101000203166002900490600052602060002090601f016020900481019282601f10620000b857805160ff1916838001178555620000e9565b82800160010185558215620000e9579182015b82811115620000e8578251825591602001919060010190620000cb565b5b509050620000f89190620000fc565b5090565b6200012191905b808211156200011d57600081600090555060010162000103565b5090565b90565b61190780620001346000396000f3fe608060405234801561001057600080fd5b50600436106100ce5760003560e01c80635718e17b1161008c578063b45fd78211610066578063b45fd7821461022e578063b8df43ae1461025f578063d1efd30d14610291578063d637dcfa146102af576100ce565b80635718e17b146101c157806360b960e5146101f25780639eb8e72514610210576100ce565b80624094db146100d357806320a6f49f14610103578063339d74a31461013357806338678ba51461016757806342169e48146101855780634834088b146101a3575b600080fd5b6100ed60048036036100e891908101906112c0565b6102df565b6040516100fa9190611698565b60405180910390f35b61011d60048036036101189190810190611398565b610399565b60405161012a9190611698565b60405180910390f35b61014d6004803603610148919081019061145b565b6104d6565b60405161015e95949392919061174b565b60405180910390f35b61016f6106d4565b60405161017c9190611698565b60405180910390f35b61018d6106da565b60405161019a9190611698565b60405180910390f35b6101ab6106e0565b6040516101b8919061157e565b60405180910390f35b6101db60048036036101d6919081019061145b565b610782565b6040516101e99291906116b3565b60405180910390f35b6101fa610867565b6040516102079190611698565b60405180910390f35b610218610871565b6040516102259190611698565b60405180910390f35b6102486004803603610243919081019061145b565b610877565b604051610256929190611668565b60405180910390f35b6102796004803603610274919081019061145b565b610933565b6040516102889392919061161c565b60405180910390f35b610299610b25565b6040516102a6919061155c565b60405180910390f35b6102c960048036036102c49190810190611301565b610bc3565b6040516102d69190611698565b60405180910390f35b60006102ea82610cc7565b6102f357600080fd5b60046000815480929190600101919050555060405180604001604052808381526020016000815250600360006004548152602001908152602001600020600082015181600001908051906020019061034c9291906111b2565b50602082015181600101559050507f2b0eeee174d41d45c8b5c15a69654052c8d29819fe75dcf785bb428e343f065582600060405161038c9291906115a0565b60405180910390a1919050565b60006002600081548092919060010191905055506040518060a001604052806002548152602001428152602001858152602001848152602001838152506001600060025481526020019081526020016000206000820151816000015560208201518160010155604082015181600201908051906020019061041b9291906111b2565b5060608201518160030190805190602001906104389291906111b2565b5060808201518160040190805190602001906104559291906111b2565b50905050600061046485610e03565b905060036000828152602001908152602001600020600101600081548092919060010191905055507f13c5e646d5829eacc1885d8609b921c6e6f30dcd63a0a7610a2ed75e6c86fae2600254428787876040516104c59594939291906116e3565b60405180910390a150949350505050565b6001602052806000526040600020600091509050806000015490806001015490806002018054600181600116156101000203166002900480601f01602080910402602001604051908101604052809291908181526020018280546001816001161561010002031660029004801561058e5780601f106105635761010080835404028352916020019161058e565b820191906000526020600020905b81548152906001019060200180831161057157829003601f168201915b505050505090806003018054600181600116156101000203166002900480601f01602080910402602001604051908101604052809291908181526020018280546001816001161561010002031660029004801561062c5780601f106106015761010080835404028352916020019161062c565b820191906000526020600020905b81548152906001019060200180831161060f57829003601f168201915b505050505090806004018054600181600116156101000203166002900480601f0160208091040260200160405190810160405280929190818152602001828054600181600116156101000203166002900480156106ca5780601f1061069f576101008083540402835291602001916106ca565b820191906000526020600020905b8154815290600101906020018083116106ad57829003601f168201915b5050505050905085565b60065481565b60025481565b606060008054600181600116156101000203166002900480601f0160208091040260200160405190810160405280929190818152602001828054600181600116156101000203166002900480156107785780601f1061074d57610100808354040283529160200191610778565b820191906000526020600020905b81548152906001019060200180831161075b57829003601f168201915b5050505050905090565b6000606060045483111561079557600080fd5b600360008481526020019081526020016000206001015460036000858152602001908152602001600020600001808054600181600116156101000203166002900480601f0160208091040260200160405190810160405280929190818152602001828054600181600116156101000203166002900480156108575780601f1061082c57610100808354040283529160200191610857565b820191906000526020600020905b81548152906001019060200180831161083a57829003601f168201915b5050505050905091509150915091565b6000600454905090565b60045481565b6003602052806000526040600020600091509050806000018054600181600116156101000203166002900480601f0160208091040260200160405190810160405280929190818152602001828054600181600116156101000203166002900480156109235780601f106108f857610100808354040283529160200191610923565b820191906000526020600020905b81548152906001019060200180831161090657829003601f168201915b5050505050908060010154905082565b6005602052806000526040600020600091509050806000018054600181600116156101000203166002900480601f0160208091040260200160405190810160405280929190818152602001828054600181600116156101000203166002900480156109df5780601f106109b4576101008083540402835291602001916109df565b820191906000526020600020905b8154815290600101906020018083116109c257829003601f168201915b505050505090806001018054600181600116156101000203166002900480601f016020809104026020016040519081016040528092919081815260200182805460018160011615610100020316600290048015610a7d5780601f10610a5257610100808354040283529160200191610a7d565b820191906000526020600020905b815481529060010190602001808311610a6057829003601f168201915b505050505090806002018054600181600116156101000203166002900480601f016020809104026020016040519081016040528092919081815260200182805460018160011615610100020316600290048015610b1b5780601f10610af057610100808354040283529160200191610b1b565b820191906000526020600020905b815481529060010190602001808311610afe57829003601f168201915b5050505050905083565b60008054600181600116156101000203166002900480601f016020809104026020016040519081016040528092919081815260200182805460018160011615610100020316600290048015610bbb5780601f10610b9057610100808354040283529160200191610bbb565b820191906000526020600020905b815481529060010190602001808311610b9e57829003601f168201915b505050505081565b6000610bce84610f3a565b610bd757600080fd5b610be083611076565b610be957600080fd5b6006600081548092919060010191905055506040518060600160405280858152602001848152602001838152506005600060065481526020019081526020016000206000820151816000019080519060200190610c479291906111b2565b506020820151816001019080519060200190610c649291906111b2565b506040820151816002019080519060200190610c819291906111b2565b509050507f133561d57163d827b6672878a1fbdd752b3d3a77b2170dca0fff4fdaf4dcfe44848484604051610cb8939291906115d0565b60405180910390a19392505050565b600080600190505b6004548111610df8576060600360008381526020019081526020016000206000018054600181600116156101000203166002900480601f016020809104026020016040519081016040528092919081815260200182805460018160011615610100020316600290048015610d845780601f10610d5957610100808354040283529160200191610d84565b820191906000526020600020905b815481529060010190602001808311610d6757829003601f168201915b5050505050905083604051602001610d9c9190611545565b6040516020818303038152906040528051906020012081604051602001610dc39190611545565b604051602081830303815290604052805190602001201415610dea57600092505050610dfe565b508080600101915050610ccf565b50600190505b919050565b600080600190505b6004548111610f33576060600360008381526020019081526020016000206000018054600181600116156101000203166002900480601f016020809104026020016040519081016040528092919081815260200182805460018160011615610100020316600290048015610ec05780601f10610e9557610100808354040283529160200191610ec0565b820191906000526020600020905b815481529060010190602001808311610ea357829003601f168201915b5050505050905083604051602001610ed89190611545565b6040516020818303038152906040528051906020012081604051602001610eff9190611545565b604051602081830303815290604052805190602001201415610f25578192505050610f35565b508080600101915050610e0b565b505b919050565b600080600190505b600654811161106b576060600560008381526020019081526020016000206000018054600181600116156101000203166002900480601f016020809104026020016040519081016040528092919081815260200182805460018160011615610100020316600290048015610ff75780601f10610fcc57610100808354040283529160200191610ff7565b820191906000526020600020905b815481529060010190602001808311610fda57829003601f168201915b505050505090508360405160200161100f9190611545565b60405160208183030381529060405280519060200120816040516020016110369190611545565b60405160208183030381529060405280519060200120141561105d57600092505050611071565b508080600101915050610f42565b50600190505b919050565b600080600190505b60065481116111a7576060600560008381526020019081526020016000206001018054600181600116156101000203166002900480601f0160208091040260200160405190810160405280929190818152602001828054600181600116156101000203166002900480156111335780601f1061110857610100808354040283529160200191611133565b820191906000526020600020905b81548152906001019060200180831161111657829003601f168201915b505050505090508360405160200161114b9190611545565b60405160208183030381529060405280519060200120816040516020016111729190611545565b604051602081830303815290604052805190602001201415611199576000925050506111ad565b50808060010191505061107e565b50600190505b919050565b828054600181600116156101000203166002900490600052602060002090601f016020900481019282601f106111f357805160ff1916838001178555611221565b82800160010185558215611221579182015b82811115611220578251825591602001919060010190611205565b5b50905061122e9190611232565b5090565b61125491905b80821115611250576000816000905550600101611238565b5090565b90565b600082601f83011261126857600080fd5b813561127b611276826117e0565b6117b3565b9150808252602083016020830185838301111561129757600080fd5b6112a283828461185a565b50505092915050565b6000813590506112ba816118ad565b92915050565b6000602082840312156112d257600080fd5b600082013567ffffffffffffffff8111156112ec57600080fd5b6112f884828501611257565b91505092915050565b60008060006060848603121561131657600080fd5b600084013567ffffffffffffffff81111561133057600080fd5b61133c86828701611257565b935050602084013567ffffffffffffffff81111561135957600080fd5b61136586828701611257565b925050604084013567ffffffffffffffff81111561138257600080fd5b61138e86828701611257565b9150509250925092565b600080600080608085870312156113ae57600080fd5b600085013567ffffffffffffffff8111156113c857600080fd5b6113d487828801611257565b945050602085013567ffffffffffffffff8111156113f157600080fd5b6113fd87828801611257565b935050604085013567ffffffffffffffff81111561141a57600080fd5b61142687828801611257565b925050606085013567ffffffffffffffff81111561144357600080fd5b61144f87828801611257565b91505092959194509250565b60006020828403121561146d57600080fd5b600061147b848285016112ab565b91505092915050565b61148d81611848565b82525050565b600061149e82611817565b6114a88185611822565b93506114b8818560208601611869565b6114c18161189c565b840191505092915050565b60006114d782611817565b6114e18185611833565b93506114f1818560208601611869565b80840191505092915050565b60006115088261180c565b6115128185611822565b9350611522818560208601611869565b61152b8161189c565b840191505092915050565b61153f8161183e565b82525050565b600061155182846114cc565b915081905092915050565b6000602082019050818103600083015261157681846114fd565b905092915050565b600060208201905081810360008301526115988184611493565b905092915050565b600060408201905081810360008301526115ba8185611493565b90506115c96020830184611484565b9392505050565b600060608201905081810360008301526115ea8186611493565b905081810360208301526115fe8185611493565b905081810360408301526116128184611493565b9050949350505050565b6000606082019050818103600083015261163681866114fd565b9050818103602083015261164a81856114fd565b9050818103604083015261165e81846114fd565b9050949350505050565b6000604082019050818103600083015261168281856114fd565b90506116916020830184611536565b9392505050565b60006020820190506116ad6000830184611536565b92915050565b60006040820190506116c86000830185611536565b81810360208301526116da8184611493565b90509392505050565b600060a0820190506116f86000830188611536565b6117056020830187611536565b81810360408301526117178186611493565b9050818103606083015261172b8185611493565b9050818103608083015261173f8184611493565b90509695505050505050565b600060a0820190506117606000830188611536565b61176d6020830187611536565b818103604083015261177f81866114fd565b9050818103606083015261179381856114fd565b905081810360808301526117a781846114fd565b90509695505050505050565b6000604051905081810181811067ffffffffffffffff821117156117d657600080fd5b8060405250919050565b600067ffffffffffffffff8211156117f757600080fd5b601f19601f8301169050602081019050919050565b600081519050919050565b600081519050919050565b600082825260208201905092915050565b600081905092915050565b6000819050919050565b60006118538261183e565b9050919050565b82818337600083830152505050565b60005b8381101561188757808201518184015260208101905061186c565b83811115611896576000848401525b50505050565b6000601f19601f8301169050919050565b6118b68161183e565b81146118c157600080fd5b5056fea365627a7a7231582015549d6e409a62023c1c55eafcf54ea844e2431e0aeedad6a6224b5755368af16c6578706572696d656e74616cf564736f6c63430005100040",
  "source": "pragma solidity >=0.4.21 <0.7.0;\npragma experimental ABIEncoderV2;\nimport \"./VoteLibrary.sol\";\n\ncontract VoteTracker\n{\n    string public secret = \"123456\";\n\n    mapping(uint => VoteLibrary.Vote) public VoteStore;\n    uint256 public voterCount = 0;\n\n    mapping(uint => VoteLibrary.Party) public PartyStore;\n    uint256 public partyCount = 0;\n\n    mapping(uint => VoteLibrary.Identity) public IdentityStore;\n    uint256 public identityCount = 0;\n\n    function registerUser(string memory _add, string memory _adhaarNumber, string memory _email) public returns(uint256)\n    {\n        require(checkIfAccCanExist(_add));\n        require(checkIfIdCanExist(_adhaarNumber));\n        identityCount++;\n        IdentityStore[identityCount] = VoteLibrary.Identity(_add,_adhaarNumber,_email);\n        emit IdentityCreate(_add,_adhaarNumber,_email);\n    }\n\n    function generateVote(string memory _adder, string memory _partyName, string memory _adhaar, string memory _constituency) public returns(uint256)\n    {\n        \n        voterCount++;\n        VoteStore[voterCount] = VoteLibrary.Vote(voterCount, block.timestamp, _partyName, _adhaar, _constituency);\n        uint partyIndex = getParty(_partyName);\n        PartyStore[partyIndex].voteCount++;\n        emit VoteGenerate(voterCount, block.timestamp, _partyName, _adhaar, _constituency);\n    }\n    \n    function createParty(string memory _name) public returns(uint256)\n    {\n        require(checkIfCanExist(_name));\n        partyCount++;\n        PartyStore[partyCount] = VoteLibrary.Party(_name, 0);\n        emit PartyCreate(_name, 0);\n    }\n\n    function getAdminKey() public returns(string memory)\n    {\n        return secret;\n    }\n\n    function checkIfCanExist(string memory _namer) private returns(bool)\n    {\n        for(uint i=1;i<=partyCount;i++)\n        {\n            string memory partyNamed = PartyStore[i].name;\n            if(keccak256(abi.encodePacked((partyNamed))) == keccak256(abi.encodePacked((_namer))))\n            {\n                return false;\n            }\n        }\n        return true;\n    }\n\n    function checkIfIdCanExist(string memory _namered) private returns(bool)\n    {\n        for(uint i=1;i<=identityCount;i++)\n        {\n            string memory idNamed = IdentityStore[i].adhaarNumber;\n            if(keccak256(abi.encodePacked((idNamed))) == keccak256(abi.encodePacked((_namered))))\n            {\n                return false;\n            }\n        }\n        return true;\n    }\n\n    function checkIfAccCanExist(string memory _namerer) private returns(bool)\n    {\n        for(uint i=1;i<=identityCount;i++)\n        {\n            string memory idNamed = IdentityStore[i].add;\n            if(keccak256(abi.encodePacked((idNamed))) == keccak256(abi.encodePacked((_namerer))))\n            {\n                return false;\n            }\n        }\n        return true;\n    }\n\n    function checkIfCanVote(string memory _adhaarer) private returns(bool)\n    {\n        for(uint i=1;i<=voterCount;i++)\n        {\n            string memory voteNamed = VoteStore[i].adhaar;\n            if(keccak256(abi.encodePacked((voteNamed))) == keccak256(abi.encodePacked((_adhaarer))))\n            {\n                return false;\n            }\n        }\n        return true;\n    }\n\n    function getParty(string memory _partyNamer) private returns (uint)\n    {\n        for(uint i=1;i<=partyCount;i++)\n        {\n            string memory partyNamed = PartyStore[i].name;\n            if(keccak256(abi.encodePacked((partyNamed))) == keccak256(abi.encodePacked((_partyNamer))))\n            {\n                return i;\n            }\n        }\n    }\n\n    function getPartyCount() public returns (uint)\n    {\n        return partyCount;\n    }\n\n    function getNames(uint _id) public returns(uint,string memory)\n    {\n        require(_id<=partyCount);\n        return (PartyStore[_id].voteCount,PartyStore[_id].name);\n    }\n\n    event IdentityCreate(string add, string adhaarNumber, string email);\n    event PartyCreate(string name, uint voteCount);\n    event VoteGenerate(uint voteCount, uint time, string partyName, string adhaar, string constituency);\n}",
  "sourcePath": "C:\\Users\\parsh\\OneDrive - Arizona State University\\ASU\\3rd Sem\\Blockchain\\E-Voting-dApp-master\\E-Voting-dApp-master\\contracts\\VoteTracker.sol",
  "compiler": {
    "name": "solc",
    "version": "0.5.16+commit.9c3226ce.Emscripten.clang"
  },
  "schemaVersion": "3.4.16",
  "updatedAt": "2023-11-26T05:21:21.985Z",
  "networkType": "ethereum",
  "devdoc": {
    "methods": {}
  },
  "userdoc": {
    "methods": {}
  }
}